{
  "_format": "hh-sol-artifact-1",
  "contractName": "integriGuard",
  "sourceName": "contracts/integriGuard.sol",
  "abi": [
    {
      "inputs": [
        {
          "internalType": "string",
          "name": "team",
          "type": "string"
        }
      ],
      "name": "getAddress",
      "outputs": [
        {
          "internalType": "address[]",
          "name": "",
          "type": "address[]"
        }
      ],
      "stateMutability": "view",
      "type": "function"
    },
    {
      "inputs": [
        {
          "internalType": "string",
          "name": "team",
          "type": "string"
        }
      ],
      "name": "getAddress2",
      "outputs": [
        {
          "internalType": "address[]",
          "name": "",
          "type": "address[]"
        }
      ],
      "stateMutability": "view",
      "type": "function"
    },
    {
      "inputs": [
        {
          "internalType": "string",
          "name": "team",
          "type": "string"
        }
      ],
      "name": "getData",
      "outputs": [
        {
          "internalType": "bytes32[]",
          "name": "",
          "type": "bytes32[]"
        }
      ],
      "stateMutability": "view",
      "type": "function"
    },
    {
      "inputs": [
        {
          "internalType": "string",
          "name": "team",
          "type": "string"
        }
      ],
      "name": "getTime",
      "outputs": [
        {
          "internalType": "uint256[]",
          "name": "",
          "type": "uint256[]"
        }
      ],
      "stateMutability": "view",
      "type": "function"
    },
    {
      "inputs": [
        {
          "internalType": "string",
          "name": "data",
          "type": "string"
        },
        {
          "internalType": "string",
          "name": "team",
          "type": "string"
        }
      ],
      "name": "setStatus",
      "outputs": [],
      "stateMutability": "nonpayable",
      "type": "function"
    }
  ],
  "bytecode": "0x608060405234801561001057600080fd5b50610b19806100206000396000f3fe608060405234801561001057600080fd5b50600436106100575760003560e01c8063ae55c8881461005c578063b359cedd1461008c578063bf40fac1146100bc578063c5590033146100ec578063ccbdf0ed14610108575b600080fd5b610076600480360381019061007191906106b4565b610138565b60405161008391906107c5565b60405180910390f35b6100a660048036038101906100a191906106b4565b610167565b6040516100b391906108af565b60405180910390f35b6100d660048036038101906100d191906106b4565b610196565b6040516100e391906109c1565b60405180910390f35b610106600480360381019061010191906109e3565b6101c5565b005b610122600480360381019061011d91906106b4565b6102fb565b60405161012f91906109c1565b60405180910390f35b606061016060028360405161014d9190610acc565b90815260200160405180910390206103a7565b9050919050565b606061018f60018360405161017c9190610acc565b90815260200160405180910390206103c8565b9050919050565b60606101be6000836040516101ab9190610acc565b90815260200160405180910390206103e9565b9050919050565b600082905060008151036101d957506102f7565b6000602084015190506004836040516101f29190610acc565b9081526020016040518091039020339080600181540180825580915050600190039060005260206000200160009091909190916101000a81548173ffffffffffffffffffffffffffffffffffffffff021916908373ffffffffffffffffffffffffffffffffffffffff160217905550610291816002856040516102759190610acc565b908152602001604051809103902061040a90919063ffffffff16565b506102c2336000856040516102a69190610acc565b908152602001604051809103902061042190919063ffffffff16565b506102f3426001856040516102d79190610acc565b908152602001604051809103902061045190919063ffffffff16565b5050505b5050565b606060048260405161030d9190610acc565b908152602001604051809103902080548060200260200160405190810160405280929190818152602001828054801561039b57602002820191906000526020600020905b8160009054906101000a900473ffffffffffffffffffffffffffffffffffffffff1673ffffffffffffffffffffffffffffffffffffffff1681526020019060010190808311610351575b50505050509050919050565b606060006103b78360000161046b565b905060608190508092505050919050565b606060006103d88360000161046b565b905060608190508092505050919050565b606060006103f98360000161046b565b905060608190508092505050919050565b600061041983600001836104c7565b905092915050565b6000610449836000018373ffffffffffffffffffffffffffffffffffffffff1660001b6104c7565b905092915050565b6000610463836000018360001b6104c7565b905092915050565b6060816000018054806020026020016040519081016040528092919081815260200182805480156104bb57602002820191906000526020600020905b8154815260200190600101908083116104a7575b50505050509050919050565b60006104d38383610537565b61052c578260000182908060018154018082558091505060019003906000526020600020016000909190919091505582600001805490508360010160008481526020019081526020016000208190555060019050610531565b600090505b92915050565b600080836001016000848152602001908152602001600020541415905092915050565b6000604051905090565b600080fd5b600080fd5b600080fd5b600080fd5b6000601f19601f8301169050919050565b7f4e487b7100000000000000000000000000000000000000000000000000000000600052604160045260246000fd5b6105c182610578565b810181811067ffffffffffffffff821117156105e0576105df610589565b5b80604052505050565b60006105f361055a565b90506105ff82826105b8565b919050565b600067ffffffffffffffff82111561061f5761061e610589565b5b61062882610578565b9050602081019050919050565b82818337600083830152505050565b600061065761065284610604565b6105e9565b90508281526020810184848401111561067357610672610573565b5b61067e848285610635565b509392505050565b600082601f83011261069b5761069a61056e565b5b81356106ab848260208601610644565b91505092915050565b6000602082840312156106ca576106c9610564565b5b600082013567ffffffffffffffff8111156106e8576106e7610569565b5b6106f484828501610686565b91505092915050565b600081519050919050565b600082825260208201905092915050565b6000819050602082019050919050565b6000819050919050565b61073c81610729565b82525050565b600061074e8383610733565b60208301905092915050565b6000602082019050919050565b6000610772826106fd565b61077c8185610708565b935061078783610719565b8060005b838110156107b857815161079f8882610742565b97506107aa8361075a565b92505060018101905061078b565b5085935050505092915050565b600060208201905081810360008301526107df8184610767565b905092915050565b600081519050919050565b600082825260208201905092915050565b6000819050602082019050919050565b6000819050919050565b61082681610813565b82525050565b6000610838838361081d565b60208301905092915050565b6000602082019050919050565b600061085c826107e7565b61086681856107f2565b935061087183610803565b8060005b838110156108a2578151610889888261082c565b975061089483610844565b925050600181019050610875565b5085935050505092915050565b600060208201905081810360008301526108c98184610851565b905092915050565b600081519050919050565b600082825260208201905092915050565b6000819050602082019050919050565b600073ffffffffffffffffffffffffffffffffffffffff82169050919050565b6000610928826108fd565b9050919050565b6109388161091d565b82525050565b600061094a838361092f565b60208301905092915050565b6000602082019050919050565b600061096e826108d1565b61097881856108dc565b9350610983836108ed565b8060005b838110156109b457815161099b888261093e565b97506109a683610956565b925050600181019050610987565b5085935050505092915050565b600060208201905081810360008301526109db8184610963565b905092915050565b600080604083850312156109fa576109f9610564565b5b600083013567ffffffffffffffff811115610a1857610a17610569565b5b610a2485828601610686565b925050602083013567ffffffffffffffff811115610a4557610a44610569565b5b610a5185828601610686565b9150509250929050565b600081519050919050565b600081905092915050565b60005b83811015610a8f578082015181840152602081019050610a74565b60008484015250505050565b6000610aa682610a5b565b610ab08185610a66565b9350610ac0818560208601610a71565b80840191505092915050565b6000610ad88284610a9b565b91508190509291505056fea26469706673582212204a8840c9d251a62319418b2b37718d845bead612c8e5f39b48bc288d0a5f75f964736f6c63430008140033",
  "linkReferences": {},
  "deployedLinkReferences": {}
}